:020000040000FA
:39000000FFFF62FF3600FFFFFFFFFFFFFFFFFFFFFFFFFFFFFFFFFFFFFFFFFFFFFFFFFFFFFFFFFFFFFFFFFFFFFFFFFFFFFFFFFFFFFFFFFFFFFFFFFFFFFF65
:39003900000C8001300006C00018000360000C800130000600000000000000000000000000000000300006C00018000360000C8001300006C0001880F948
:390072000012400248000920012480049000124002480009000000000000000000000000000000004800092001248004900012400248000920012480F9A5
:3900AB000000000000000000000000000000000000000000000000000000000000000000000000000000000000000000000000000000000000000080F9A3
:3900E4000000000000000000000000000000000000000000000000000000000000000000000000000000000000000000000000000000000000000080F96A
:39011D000000000000000000000000000000000000000000000000000000000000000000000000000000000000000000000000000000000000000080F930
:390156000000000000000000000000000000000000000000000000000000000000000100000000000000000000000000000000000000000000000080E807
:39018F00000000800000001A0100000000000034060000000000000000000000000000000000008002500002400028004D2088000000000002000000929D
:3901C80000000000000000180400000000000030000000000000000000000000000000000000000004812000080040100008000000000000000000808E9F
:3902010000000080070000180000000000000020000000000000000000000000000000000000008003700000100038000C8000000000000000000000C07E
:39023A000000008006000058040000000000003021000000000000000000000000000000000000800491204000804810080244000000000000000000A31A
:390273000000000000000098000000000000003001000000000000000000000000000000000000002240040801902002800410000000000018110080EC3F
:3902AC00000000800101001E040000000000003C080000000000000000000000000000000000008005B12006C40058100FE04100000000001E000080D605
:3902E50000000000000100180400000000000030080000000000000000000000000000000000000002400008048020000000400000000000000000808657
:39031E0000000000100000100100000000000030000000000000000000000000000000000000000012412290000B20112C820900000000000020000091AC
:3903570000000080000000020000000000000004000000000000000000000000000000000000008006D0008A4000680041241002000010481A000080FFF7
:390390000000000000000000000000000000000000000000000000000000000000000000000000000000001004000000000000000000000000000080B8E8
:3903C900000000800701001E0000000000000000000000000000000000000000000000000000008007F0000800007800000800000000000018000000EF4F
:390402000800008010000002040000000000000000000000000000000000000000000000000000800011209802100A100000280000000028001100A0FCB1
:39043B000000000000000000050000000000000008000000000000000000000000000000000000002000045820A00002200000010000008840000080B024
:390474000000008007010006000000000000000C000000000000000000000000000000000000008007F1201EC0007810036400000000B00006080000B8DA
:3904AD0004000000000000181000000000000030080000000000000000000000000000000000000006C0001800806000000800010000C00018080090DBA0
:3904E6000000000000010000010000000000003000000000000000000000000000000000000000001001225804130011480001000000C02218010000B6FE
:39051F00000000801201008A100000000000000400000000000000000000000000000000000000800010008A4010080001A82000000050040A080000C70A
:390558000000000000000000000000000000000000000000000000000000000000000000000000000000000010000100080000000000808010000000E061
:39059100000000800300000E000000000000003C200000000000000000000000000000000000008007F00000C002780000808000000000200008000087E4
:3905CA0008000080100100420400000000000004020000000000000000000000000000000000008006D00000489168002804000000008008100000A0DA3E
:3906030000000000000000000500000000000080100000000000000000000000000000000000000026C00498001060020C0404000000000448000000FED7
:39063C000000008005010016000000000000003C000000000000000000000000000000000000008007F1201EC8817810076080000000302006080000C120
:39067500040000000200000800000000000000000000000000000000000000000000000000000000000000180802000004080101000000200000009098C6
:3906AE000000000000010000040000000000008008000000000000000000000000000000000000001001221801880011000008000000000200200080D522
:3906E7000000008016080002000000000000000421000000000000000000000000000000000000802011248A44000800012048000000100402000080E487
:3907200000000000060000000000000000000000000000000000000000000000000000000000000000000000000000000000000000000040000000809D3D
:39075900000000000602001E100000000000001C080000000000000000000000000000000000000000012008C00000100C0000000000B02000000080ECCC
:3907920008000000060000020100000000000024020000000000000000000000000000000000000010000210502301040C0028000000100800000020EF02
:3907CB0000000000160000400400000000000080080000000000000000000000000000000000000020044080081300110C01000100008004181100808048
:39080400000000800301001E000000000000002C000000000000000000000000000000000000008001300016C08018000F600000000070201E000000FDB4
:39083D0004000000060000000000000000000010000000000000000000000000000000000000000000012000040000100C0400000000802000000010EE85
:39087600000000000601000005000000000000000A0000000000000000000000000000000000000004800050009060020C0085000000000240080080F81A
:3908AF00000000800600008A100000000000000400000000000000000000000000000000000000802251241A4000680081B001040A00D0000A090040CCE4
:3908E8000000000006000000000000000000000000000000000000000000000000000000000000000480000000000000008001000000C000000000808DFF
:39092100000000800100000E0400000000000000000000000000000000000000000000000000008003712018C800781004E001300800300008000080B801
:39095A00080000800000000201000000000000000000000000000000000000000000000000000080149002004023090480A201800000100080020030A13D
:390993000000000020010040040000000000008010000000000000000000000000000000000000002244404000930011000048800000002410210010DAA5
:3909CC000000008001000016000000000000000C000000000000000000000000000000000000008005B00006C80078000F62000C1000300006000080E1B0
:390A050004000000060100080000000000000030000000000000000000000000000000000000000002412018080060100002001000000000000000309EA2
:390A3E00000000001600000005000000000000B0080000000000000000000000000000000000000002400098008000020C0000202100004840080080BE35
:390A770000000080160200020000000000000014210000000000000000000000000000000000008006D0000A4510680081B009040000100082000000E0AA
:390AB0000000000004000000000000000000000000000000000000000000000000000000000000000000001000006100000040000000000000100080FBCD
:390AE9000000000006000000000000000000001C080000000000000000000000000000000000008007F12018C00278000080010000003000180000809DDA
:390B22000800000046010040040000000000008400000000000000000000000000000000000000801010029042816800400148000500D048802000A0BE82
:390B5B000000000006000000050000000000008010000000000000000000000000000000000000002004400821900011008480004200C02400110080D904
:390B94000000008007010006000000000000002C000000000000000000000000000000000000008007F00016C00118000BE0010C0000300006000000C416
:390BCD0004000000060000000000000000000010000000000000000000000000000000000000000006C1200810820000000800311000002008000010FED5
:390C06000000000006020018040000000000008008000000000000000000000000000000000000000000001000080000008011000000000258080000F10D
:390C3F00000000800000000200000000000000040000000000000000000000000000000000000080001000024200080001A401340000D04082040080D951
:390C78000000000000000000000000000000000000000000000000000000000000000000000000000000000000000010008001000000800000000000F83A
:390CB1000000000000000000040000000000003C200000000000000000000000000000000000008007F00000D0000000006800001000C0000800000082A1
:390CEA0008000000100100800000000000000004020000000000000000000000000000000000008006D0000041230110002000000000C02040200020CF18
:390D230000000000000000001100000000000000080000000000000000000000000000000000000026C4400021A30002000850004200C018480400008B45
:390D5C000000008001010006000000000000003C000000000000000000000000000000000000008007F00006C00018100360000C0000F00016000080FD43
:390D95000400000000000000000000000000000008000000000000000000000000000000000000000001200000000000088001000000C04008000010C097
:390DCE00000000000601009810000000000000000000000000000000000000000000000000000000000000480810421120A491000500C00210050080EEEB
:390E0700000000800000008A100000000000000401000000000000000000000000000000000000800010008248100800852800840800100002010000C015
:390E400000000000000000000000000000000000080000000000000000000000000000000000000000012000000001000C0000000000000000040000D867
:390E7900000000800701000E0400000000000000080000000000000000000000000000000000000000300000C0027800048401100000002008000000D49F
:390EB2000800008010000082000000000000008000000000000000000000000000000000000000000011208042116A004C8001002100000250040020A6F5
:390EEB000000000040040000110000000000008010000000000000000000000000000000000000002000040021A060110C0808112200000400000000DB65
:390F24000000008007000016000000000000000C000000000000000000000000000000000000008001312006C00178000B60002C000030201E100000F0D5
:390F5D000400000000010008000000000000000000000000000000000000000000000000000000000000000000820010040080000000002008000090B0D0
:390F9600000000002000008010000000000000A008000000000000000000000000000000000000001481224808100002280408A01000C008980400009ACF
:390FCF000000000000000000000000000000000000000000000000000000000000000000000000000000000000000000000000000000000000000080F970
:391008002000048000100002400008000120000480001000000000000000000000000000000000800010000240000800010000048000100002400080FBD0
:391041000000000000000000000000000000000000000000000000000000000000000000000000000000000000000000000001000000000000000080E90C
:39107A002800048000100002400008000120000480001000000000000000000000000000000000800010000240000800012000048000100002400020DBB6
:3910B3000000000004000010000000000000002000000000000000000000000000000000000000000480000000004000000000000000000000000000EA22
:3910EC002000040000100000400008000120000080001000000000000000000000000000000000000000000200000000010000048000000002400080DA7B
:391125000400000000000000000000000000000000000000000000000000000000000000000000000000000000000000000040000000000000000090E8D5
:39115E002000048000100002400008000120000480001000000000000000000000000000000000800010000240100C00012000048000100403400080F942
:391197000000000000000000000000000000000000000000000000000000000000000000000000000000000000000000000000000000000000000080F9A6
:3911D0000000000010000000000000000000000000000000000000000000000000000000000000000000000000000000000000000000000000000080E86E
:391209000000000000000000000000000000000000000000000000000000000000000000000000000000000000000000000000000000000000000080F933
:391242000000000000000000000000000000000000000000000000000000000000000000000000000000000002000000200020000000000000000080DBD6
:39127B000000000000000000000000000000000000000000000000000000000000000000000000000000000000000000000000000000000000000008F141
:3912B4000000000000000040000000000000000000000000000000000000000000000000000000000000000000000000000000000000000000000080BD84
:3912ED000000000000000000000000000000000000000000000000000000000000000000000000000000000800000000000000000000000000000000F9C7
:391326000000000000000000040000000000001008000000000000000000000000000000000000000000000000000000000000000000000000000000F47E
:39135F000000000000000000100000000000000420000000000000000000000000000000000000000000000400000000000000000000000000000080CBD2
:391398000020000000000000000000000000300004000000000000000000000000000000000000000000006800050000000000000000000000000000A8B3
:3913D1000000000000000000000000000000000000000000000000000000000000000000000000000000000800010000000000000000000000000000F8E2
:39140A0000200000000000000000000000004000080000000000000000000000000000000000000000000000000000000000000000000000000000889B1E
:391443000000000000000000000000000000000000000000000000000000000000000000000000000000000000000000000000000000000000000080F9F7
:39147C0000000000000000000000000000000000000000000000000000000000000000000000000000000004000000000000000000002000000000809DF6
:3914B5000000000000000000000000000000000000000000000000000000000000000000000000000000000000000000024000000000000000000080FF3D
:3914EE000000000000000000000000000000000000000000000000000000000000000000000000000000000000000000000000000000000000000080F94C
:39152700000000000A000000000000000000000000000000000000000000000000000000000000000000000000000000000000000000000000000000D1B0
:391560000000000001000000000000000000000000000000000000000000000000000000000000000000000000000000000000000000000000000080E9E8
:391599000000000000000000000000000000000000000000000000000000000000000000000000000000000000020000000000000000800000000000F3A4
:3915D2000000000000000000000000000000000000000000000000000000000000000000000000000000002000000000000000000000000000000080FB45
:39160B000000000000000000000000000000000000000000000000000000000000000000000000000000001000000000000000000000000000000080F81E
:391644000000000000000000000000000000000000000000000000000000000000000000000000000000004000000000000004800000000040000000F178
:39167D000000000000000000000000000000000000000000000000000000000000000000000000000000000804000010008040100000400008000080BCC4
:3916B60040000000024100000000000000000000000000000000000000000000000000000000000000000000000020000400000000800000000000009A3A
:3916EF002000008000140000000000000000000000000000000000000000000000000000000000000000000408000820014080080000240004000000E009
:39172800000000008000021000000000000000000480000000000000000000000000000000000000044000F00500A01600804A80000A000010000000F32C
:3917610000000000000000000000000000000000000000000000000000000000000000000000000000400000040020100080400000020000000000808217
:39179A000000000000010008000000000000000008000200000000000000000000000000000000000200000800000000000000000000000008000080F081
:3917D30000000000000000000000000000000014000000000000000000000000000000000000000000200000000000000000000000000000000000809E8B
:39180C00000000000000000000000000000000000000000000000000000000000000000000000000000000020000000005A00004000000000A000000F8F6
:39184500000000000000000000000000000000000000000000000000000000000000000000000000000000000A000200200004000000708000200000CB5F
:39187E0000000000000000000000000000000000000000000000000000000000000000000000000000000018100001000A40012820000000141000008DC4
:3918B7000000000000000000000000000000000000000000000000000000000000000000000000000000002000000000000000000000000000000080FB5D
:3918F0000000000000000000020000000000000004000000000000000000000000000000000000000000000000000000000000000000000000000080BB7E
:391929000000000000080000000000000000000000000000000000000000000000000000000000000000000004000000000201000000002000040080854D
:391962000000000000000000000000000000000000000000000000000000000000000000000000000000000000000000000000000000000000000080F9D3
:39199B000000000000000000000000000000000000000000000000000000000000000000000000000000000020000000000000000000000000100080CB98
:3919D4000000000000000000000000000000000000000000000000000000000000000000000000000000000000000000000000001000000200080080D26E
:391A0D000000000000000000000000000000000000000000000000000000000000000000000000000000000400000000000000000000000004000080FD1B
:391A46000000000000000000080000000000000010000000000000000000000000000000000000008000000000000000000800010000000000000000E9DD
:391A7F00A008040000000000000000000000000401000000000000000000000000000000000000000000000040230000000000000000000000402104DFD6
:391AB8000000010000000000000000000000000020000000000000000000000000000000000000000000000000830000000000000000000000000000D180
:391AF100E0003C0800000000000000000000001C00000000000000000000000000000000000000000000000000030000000000000000000000C00100D4E4
:391B2A002048040000000000000000000000002408000000000000000000000000000000000000000000000000890000000000000000000000409000B5DC
:391B63000000024000000000000000000000000008000000000000000000000000000000000000000000000000130000000000000000000000002001F6D5
:391B9C0060013C0000000000000000000000002C000000000000000000000000000000000000000000000000C0830000000000000000000000C00280B012
:391BD5008080000000000000000000000000001000000000000000000000000000000000000000000000000000830000000000000000000000000180EAD9
:391C0E000010000900000000000000000000000009000000000000000000000000000000000000000000000000230000000000000000000000008800CA06
:391C47002000340000000000000000000000000400000000000000000000000000000000000000000000000040000000000000000000000000402084CD1B
:391C80000000300000000000000000000000000000000000000000000000000000000000000000000000000000000000000000000000000000000080C9B2
:391CB900E0010C00000000000000000000000000000000000000000000000000000000000000000000000000C0030000000000000000000000C00180F50C
:391CF200284004000000000000000000000000000000000000000000000000000000000000000000000000004080000000000000000000000040A2A0BD4E
:391D2B0000400002000000000000000000000000100000000000000000000000000000000000000000000000008000000000000000000000000000008627
:391D640060000C0800000000000000000000000C000000000000000000000000000000000000000000000000C0000000000000000000000000C0828091B3
:391D9D0084013008000000000000000000000030000000000000000000000000000000000000000000000000000300000000000000000000000001109577
:391DD600001031000000000000000000000000B00800000000000000000000000000000000000000000000000000040000000000000000000000800096C1
:391E0F00A008040000000000000000000000000400000000000000000000000000000000000000000000000040210400000000008006000000400000B20D
:391E480000000100000000000000000000000000000000000000000000000000000000000000000000000000000000000000000000060000000000809842
:391E8100E0003C0000000000000000000000003C000000000000000000000000000000000000000000000000C0010000000000008007000000C00300CAFB
:391EBA0028443400000000000000000000000004220000000000000000000000000000000000000000000000408800000000000080060000004000A48374
:391EF3000040800000000000000000000000000010000000000000000000000000000000000000000000000000800000000000000010000000002081AF06
:391F2C0060010C0800000000000000000000003C000000000000000000000000000000000000000000000000C0020000000000008001010000C0038080C4
:391F65008400000800000000000000000000000000000000000000000000000000000000000000000000000000010000000000000000000000000010A501
:391F9E000040000000000000000000000000008008000000000000000000000000000000000000000000000000800000000000000000000000008800BD7D
:391FD70020000400000000000000000000000034210000000000000000000000000000000000000000000000400000000000000080000000004000808652
:392010000000000000000000000000000000003000000000000000000000000000000000000000000000000000000000000000000000000000000080FAED
:39204900E0013C08000000000000000000000030100000000000000000000000000000000000000000000000C0030000000000008007010000000080F737
:392082002810050000000000000000000000002002000000000000000000000000000000000000000000000040000400000000008040000000000020A3FF
:3920BB000044800000000000000000000000003000000000000000000000000000000000000000000000000000880000000000000010000000002081F5CA
:3920F400E0013C0800000000000000000000003C080000000000000000000000000000000000000000000000C0030000000000008007010000C00000E25D
:39212D0004000000000000000000000000000030080000000000000000000000000000000000000000000000000000000000000000000000000003109496
:392166000050000A00000000000000000000003002000000000000000000000000000000000000000000000000A00000000000000040010000008B00FB4D
:39219F00A008140A00000000000000000000000400000000000000000000000000000000000000000000000040210400000000008046000000400080C48E
:3921D80000000100000000000000000000000000000000000000000000000000000000000000000000000000000000000000000000060200000000809AAB
:39221100E0401C0800000000000000000000003C000000000000000000000000000000000000000000000000C0810000000000000006010000C00300BF4A
:39224A0028100402000000000000000000000004220000000000000000000000000000000000000000000000402000000000000000260000004000248E7F
:392283000044800000000000000000000000008008000000000000000000000000000000000000000000000000880000000000000012000000008880CC68
:3922BC0060012C0800000000000000000000003C000000000000000000000000000000000000000000000000C0020000000000008007010000C00380C0CB
:3922F5008400100000000000000000000000000008000000000000000000000000000000000000000000000000010000000000000006000000008010D5A8
:39232E000050000A00000000000000000000000002000000000000000000000000000000000000000000000000A00000000000000046020000002080A2F0
:392367002000340000000000000000000000000400000000000000000000000000000000000000000000000040000000000000008022010000402080869C
:3923A0000000302000000000000000000000000008000000000000000000000000000000000000000000000000000000000000000000000000008000CB61
:3923D9000000300000000000000000000000000008000000000000000000000000000000000000000000000000000000000000008003010000000000F817
:392412000844B01000000000000000000000000001000000000000000000000000000000000000000000000000880000000000008010000000009020E6D6
:39244B0000403009000000000000000000000000100000000000000000000000000000000000000000000000008000000000000000100000000020818618
:3924840060003C0000000000000000000000000C000000000000000000000000000000000000000000000000C0000000000000008005010000C00000D29F
:3924BD000400300000000000000000000000000000000000000000000000000000000000000000000000000000000000000000000002000000000090BC64
:3924F6008041100A0000000000000000000000A008000000000000000000000000000000000000000000000000830000000000000040010000008A80F16B
:39252F00A011342000000000000000000000000400000000000000000000000000000000000000000000000040210C00000000008000000000400000E954
:3925680080412000000000000000000000000000000000000000000000000000000000000000000000000000000000000000000000000000000000808554
:3925A10000013008000000000000000000000000000000000000000000000000000000000000000000000000C081780000000000000001000000008092FC
:3925DA008845B000000000000000000000000000000000000000000000000000000000000000000000000000400008800000000000100000000000A0AA29
:392613008009B00000000000000000000000008008000000000000000000000000000000000000000000000000000000000000000010000000008880C8ED
:39264C00E0413C0800000000000000000000000C000000000000000000000000000000000000000000000000C0027A40000000008001010000C00000AD79
:392685008441300000000000000000000000003008000000000000000000000000000000000000000000000000010210000000000000000000008310C287
:3926BE008011300400000000000000000000003002000000000000000000000000000000000000000000000000200000000000000046010000002380934F
:3926F7002000040000000000000000000000001401000000000000000000000000000000000000000000000040000000000000008006020000400B01E776
:392730000000000000000000000000000000000020000000000000000000000000000000000000000000000000000000000000000006000000000380883F
:392769000000000800000000000000000000001C08000000000000000000000000000000000000000000000000800000000000000006020000000382CD31
:3927A20008480002000000000000000000000004010000000000000000000000000000000000000000000000000000000000000000160000000023A0A12D
:3927DB000000820000000000000000000000000010000000000000000000000000000000000000000000000000000000000000000016010000002300A356
:3928140060000C0800000000000000000000002C000000000000000000000000000000000000000000000000C0000200000000008005000000C08380F8E9
:39284D000480000000000000000000000000001000000000000000000000000000000000000000000000000000000200000000000006000000008310D44F
:392886008011300A00000000000000000000008008000000000000000000000000000000000000000000000000230000000000000046010000002180F7C4
:3928BF000000000000000000000000000000000000000000000000000000000000000000000000000000000000000000000000000000000000000080F967
:3928F8002000048000100002400008000120000480001000000000000000000000000000000000800010000240000800012000048000100002400080F9AA
:392931000000000000000000000000000000000000000000000000000000000000000000000000000000000000000000000000000000000000000080F9F4
:39296A002800048000100002400008000120000480001000000000000000000000000000000000800010000240000800012000048000100002400020DBAD
:3929A3000001200000000000000000000000002000000000000000000000000000000000000000000000000000024000000000000004000000000280AF43
:3929DC000000008000100002400008000120000080001000000000000000000000000000000000800010000200000000012000040000100002000000B7B7
:392A15000400000000000000000000000000000000000000000000000000000000000000000000000000000000000000000000000000000000000090AC48
:392A4E002000048000100002400008000120000480001000000000000000000000000000000000800010000240000800012000048000100002400080F952
:392A87000000000000000000000000000000000000000000000000000000000000000000000000000000000000000000000000000000000000000080F99D
:392AC0000000000000000000000000000000000004000000000000000000000000000000000000000000000000000000000000000000000000000080B9A0
:392AF9000000000000000000000000000000000000000000000000000000000000000000000000000000000000000000000000000000000000000080F92B
:392B32000000000000000000000000000000000000000000000000000000000000000000000000000000000000000000000000000000000000000080F9F1
:392B6B000000000000000000000000000000000000000000000000000000000000000000000000000000000000000000000000000002000000000080D9D6
:392BA4000000200000000000000000000000000000000000000000000000000000000000000000000000000000000000000000000000000000000080D97F
:392BDD000000000000000000000000000000000000000000000000000000000000000000000000000000000000000000000000000000000000000080F946
:392C16000040000000000000000000000080000000000000000000000000000000000000000000000000000004000000000000000000000008040080F144
:392C4F000000010000000000000000000020000000000000000000000000000000000000000000000000000010000000000000000000000002100080FB8E
:392C880000186100000000000000000000000700000000000000000000000000000000000000000000000080000000000000000000000000C0000080CA09
:392CC1000000000000000000000000000000000000000000000000000000000000000000000000000000000000000000000000000000000000000080F961
:392CFA000000100000000000000000000080000000000000000000000000000000000000000000000000000000000000000000000000000000000000E928
:392D33000000000000000000000000000000000000000000000000000000000000000000000000000000000000000000000000000008000000000000F16E
:392D6C008000000000000000000000000000001000000000000000000000000000000000000000000000000000000000000000000000000000000080F02E
:392DA5000000000000000000000000000000000000000000000000000000000000000000000000000000000000000000000000000000000000000080F97C
:392DDE000000000000000000000000000000000000000000000000000000000000000000000000000000000000000000000000000000000000000080F943
:392E17000000040000000000000000000000000000000000000000000000000000000000000000000000000000000000000000000001000000000080ED10
:392E50000000000000000000000000000000000000000000000000000000000000000000000000000000000000000000000000000000000000000080F9D0
:392E89000000000000000000000000000000000000000000000000000000000000000000000000000000000000000000000000000000000000000080F997
:392EC2000000000000000000000000000000000000000000000000000000000000000000000000000000000000000000000000000000000000000080F95E
:392EFB000000000000000000000000000000000000000000000000000000000000000000000000000000000000000000000000000004000000000080B961
:392F34000000000000000000000000000000000000000000000000000000000000000000000000000000000000000000000000000000000000000080F9EB
:392F6D000000000000000000000000000000000000000000000000000000000000000000000000000000000000000000000000000000000000000080F9B2
:392FA6008000000000000000000000000000001000000000000000000000000000000000000000000000000800002000000000000002010008000080DBD4
:392FDF0020000000000000000000000000000004000000000000000000000000000000000000000000000002000008000000000080A00400020000809352
:3930180000070006000000000000000000000300000000000000000000000000000000000000000000000040000000000000000000000000700000809FA0
:393051000000000000000000000000000000000000000000000000000000000000000000000000000000000000000000000000000000000000000080F9CD
:39308A008000000800000000000000000080000000000000000000000000000000000000000000000000000000000000000000000000000008000000F904
:3930C3000000000000000000000000000000000800000000000000000000000000000000000000000000000000000000000000000000000000000100E8E3
:3930FC000000001000000000000000000000000000000000000000000000000000000000000000000000000000000000000000000000000000800000F01B
:393135000000000000000000000000000000000000000000000000000000000000000000000000000000000000000000000000000000000000000080F9E8
:39316E000000000000000000000000000000000000000000000000000000000000000000000000000000000000000000000000000000000000000080F9AF
:3931A7000000012000000000000000000000000000000000000000000000000000000000000000000000000000000000000000000000000000000080FA54
:3931E0000000000000000000000000000000000000000000000000000000000000000000000000000000000000000120000000000000000000000080CA4B
:393219000040000000000000000000000000000008000000000000000000000000000000000000000000000000000000000000000000000000000000B57F
:393252000000000000000000000000000000000000000000000000000000000000000000000000000000000000000240000000000000000000000082BFC0
:39328B000000000000000000000000000000000000000000000000000000000000000000000000000000000000000000000000000000000000000080F991
:3932C4000000000000000000000000000000000000000000000000000000000000000000000000000000000000000000000000000000000000000080F958
:3932FD000000800000000000000000000000000000000000000000000000000000000000000000000000000000000000000000000000000000000000F127
:393336000000000000000000000000000000000000000000000000000000000000000000000000000000000000400000000000000000000000004080BDA1
:39336F00000004000000000040080A0000A011008000D000000000000000000000000000000000000000000000000000000000000000000000000080ABA3
:3933A800000000000000000000000000008041000000C000000000000000000000000000000000000000000000000000000000000000000000000000B4B7
:3933E10000003C0000000000C0017800008001008007F100000000000000000000000000000000000000000000000000000000000000000000000080FBCA
:39341A00000084200000000040820812008045008040D0000000000000000000000000000000000000000000000000000000000000000000000000808F95
:393453000000000900000000008800040080090000400100000000000000000000000000000000000000000000000000000000000000000000000000BC25
:39348C0000003C0000000000C002181000E0410080073020000000000000000000000000000000000000000000000000000000000000000000000080A7C2
:3934C5000000000000000000000160000000410000000000000000000000000000000000000000000000000000000000000000000000000000000080CFDD
:3934FE0000000009000000000090004100801100002001000000000000000000000000000000000000000000000000000000000000000000000000808009
:3935370000009400000000004000080000200000800610000000000000000000000000000000000000000000000000000000000000000000000000008841
:393570000000002000000000000000000000000000060000000000000000000000000000000000000000000000000000000000000000000000000080FD7F
:3935A90000001C00000000000000001000E001008007F020000000000000000000000000000000000000000000000000000000000000000000000080B80D
:3935E2000800040800000000000000000020400080061000000000000000000000000000000000000000000000000000000000000000000000000020BACC
:39361B000000000900000000000000010000400000400008000000000000000000000000000000000000000000000000000000000000000000000080E183
:3936540000002C0000000000C0001A20006000008001F120000000000000000000000000000000000000000000000000000000000000000000000000DF46
:39368D0004001000000000000003010000800101000000000000000000000000000000000000000000000000000000000000000000000000000000108FCB
:3936C6000000000900000000001360140000040000000024000000000000000000000000000000000000000000000000000000000000000000000000CE45
:3936FF00000094000000000040090A0000A0040180005028000000000000000000000000000000000000000000000000000000000000000000000080840A
:393738000000002000000000000000000000000000000000000000000000000000000000000000000000000000000000000000000000000000000080FBBD
:3937710000001C0000000000C001780000E0000080077100000000000000000000000000000000000000000000000000000000000000000000000080B4BE
:3937AA0008008408000000004088081100204400804010220000000000000000000000000000000000000000000000000000000000000000000000A0A3D8
:3937E300000000010000000000A000110000400000400000000000000000000000000000000000000000000000000000000000000000000000000080F308
:39381C0000002C1000000000C0021800006001008007B120000000000000000000000000000000000000000000000000000000000000000000000000FFA5
:393855000400100800000000000161000080000000004000000000000000000000000000000000000000000000000000000000000000000000000090DF8D
:39388E000000800000000000000000410000400000100120000000000000000000000000000000000000000000000000000000000000000000000000D3FC
:3938C7000000040000000000400008000020000080221100000000000000000000000000000000000000000000000000000000000000000000000080A584
:393900000000000000000000000000000000000000000000000000000000000000000000000000000000000000000000000000000000000000000080F915
:393939000000000000000000C0037A0000E001018003F020000000000000000000000000000000000000000000000000000000000000000000000080859E
:3939720008000008000000004008084100200400804011080000000000000000000000000000000000000000000000000000000000000000000000A0AC32
:3939AB000000000900000000009000010000440000400004000000000000000000000000000000000000000000000000000000000000000000000000A41D
:3939E40000000C0000000000C003782000E00100800531200000000000000000000000000000000000000000000000000000000000000000000000808389
:393A1D00040000000000000000000000000000000002C020000000000000000000000000000000000000000000000000000000000000000000000090807A
:393A5600000030090000000000A0001400005000001001000000000000000000000000000000000000000000000000000000000000000000000000009752
:393A8F0000000400000000004000081200A0040180061400000000000000000000000000000000000000000000000000000000000000000000000000D38E
:393AC8000000000000000000008000000000000000060000000000000000000000000000000000000000000000000000000000000000000000000080F7C8
:393B010000000000000000000080380000E0400000060100000000000000000000000000000000000000000000000000000000000000000000000080FB31
:393B3A0008008008000000000008481100201000002600220000000000000000000000000000000000000000000000000000000000000000000000209831
:393B73000000000100000000000000110000440000420008000000000000000000000000000000000000000000000000000000000000000000000000F782
:393BAC0000000C1000000000C0001A000060010080073120000000000000000000000000000000000000000000000000000000000000000000000000D5DC
:393BE500040000080000000000002100008000000006000000000000000000000000000000000000000000000000000000000000000000000000009098CC
:393C1E000000B0000000000000122041000050000086C024000000000000000000000000000000000000000000000000000000000000000000000080B15F
:393C5700000004000000000040090A000020000080069010000000000000000000000000000000000000000000000000000000000000000000000000B8DF
:393C9000000000000000000000000010000000000006C000000000000000000000000000000000000000000000000000000000000000000000000080E3C2
:393CC90000003C0000000000C0810010000000008001C00000000000000000000000000000000000000000000000000000000000000000000000008089EB
:393D0200080084200000000040080000000044008000C080000000000000000000000000000000000000000000000000000000000000000000000020DD93
:393D3B00000000010000000000000001000040000010C104000000000000000000000000000000000000000000000000000000000000000000000080E4D4
:393D740000003C1000000000C0021A20006000008001F020000000000000000000000000000000000000000000000000000000000000000000000000FDE0
:393DAD00040000080000000000010100000000000006C100000000000000000000000000000000000000000000000000000000000000000000000010B642
:393DE600000080000000000000104014008041000046C022000000000000000000000000000000000000000000000000000000000000000000000080A9AE
:393E1F00000034000000000040002801002000008000D0220000000000000000000000000000000000000000000000000000000000000000000000808B30
:393E5800000030000000000000000040000000000000C00000000000000000000000000000000000000000000000000000000000000000000000008085FC
:393E910000000C00000000000000381000E001010000C000000000000000000000000000000000000000000000000000000000000000000000000080A4DE
:393ECA00080004000000000000000800002004000040C1820000000000000000000000000000000000000000000000000000000000000000000000208C58
:393F03000000000A0000000000900001000008010040C000000000000000000000000000000000000000000000000000000000000000000000000000865B
:393F3C0000000C0000000000C000582000E001008001F1200000000000000000000000000000000000000000000000000000000000000000000000809A7B
:393F75000400300000000000000320000000400000004000000000000000000000000000000000000000000000000000000000000000000000000090C9E3
:393FAE000000B0200000000000A30014000000000016C120000000000000000000000000000000000000000000000000000000000000000000000000C795
:393FE700000034000000000040096800002000008004180400000000000000000000000000000000000000000000000000000000000000000000008095E7
:394020000000300800000000008360100000000000060020000000000000000000000000000000000000000000000000000000000000000000000000A076
:3940590000003000000000000003610000000000000600000000000000000000000000000000000000000000000000000000000000000000000000808A8A
:3940920008003008000000000003201100000402002601220000000000000000000000000000000000000000000000000000000000000000000000A0F89A
:3940CB000000300200000000000360200000080100260000000000000000000000000000000000000000000000000000000000000000000000000080A1B7
:3941040000003C1000000000C0837800006000008007312000000000000000000000000000000000000000000000000000000000000000000000000099AA
:39413D0004003010000000000003601000004000000600000000000000000000000000000000000000000000000000000000000000000000000000909E1E
:39417600000020010000000000A360040080010000168120000000000000000000000000000000000000000000000000000000000000000000000000BFF1
:3941AF000000000000000000000000000000000000000000000000000000000000000000000000000000000000000000000000000000000000000080F95E
:3941E8002000048000100002400008000120000480001000000000000000000000000000000000800010000240000800012000048000100002400080F9A1
:394221000000000000000000000000000000000000000000000000000000000000000000000000000000000000000000000000000000000000000080F9EB
:39425A002800048000100002400008000120000480001000000000000000000000000000000000800010000240000800012000048000100002400020DBA4
:394293000000200000000000000240000000010000048000000000000000000000000000000000000000000000000000000000000000000000000080B2D9
:3942CC002000008000100002000000000100000400000000000000000000000000000000000000800010000240000800012000048000100002400080961B
:394305000400000000000000000000000000000000000000000000000000000000000000000000000000000000000000000000000000000000000090AC3F
:39433E002000048000100002400008000120000480001000000000000000000000000000000000800010000240000800012000048000100002400080F949
:394377000000000000000000000000000000000000000000000000000000000000000000000000000000000000000000000000000000000000000080F994
:3943B0000000000000000000000000000000000000000000000000000000000000000000000000000000000000000000000000000000000000000080F95B
:3943E9000000000000000000000000000000000000000000000000000000000000000000000000000000000000000000000000000000000000000080F922
:394422000000000000000000000000000000000000000000000000000000000000000000000000000000000000000000000000000000000000000080F9E8
:39445B000000400000000000000000000000000000000000000000000000000000000000000000000000000000000000000000000000000000000080B9AF
:394494000000000000000000000000000000000000000000000000000000000000000000000000000000000000000000000000000000000000000080F976
:3944CD000000000000000000000000000000000000000000000000000000000000000000000000000000000000000000000000000000000000000080F93D
:394506008000000000000008000000000000400000000100000000000000000000000000000000000000000000000000000000000000000000000000A80B
:39453F0020000000000000020000000000000001000004000000000000000000000000000000000000000000000000000000000000000000000000808E0E
:394578000007000000000040000040000000000000000000000000000000000000000000000000000000000000000000000000000000000000000080897A
:3945B1000000000000000000000000000000000000000000000000000000000000000000000000000000000000000000000000000000000000000080F958
:3945EA008000000000000000000020000000000000000000000000000000000000000000000000000000000000000000000000000000000000000080D3A5
:394623000000000000000000000000000000000000100000000000000000000000000000000000000000000000000000000000000000000000000080E9E5
:39465C000000000000000000000040000000000000001000000000000000000000000000000000000000000000000000000000000000000000000080BC99
:394695000000000000000000000000000000000000000000000000000000000000000000000000000000000000000000000000000000000000000080F973
:3946CE000000000000000000000000000000000000000000000000000000000000000000000000000000000000000000000000000000000000000080F93A
:394707000000000000000000800000000000000200000000000000000000000000000000000000000000000000000000000000000000000000000000D324
:394740000000000000000000000000000000000000000000000000000000000000000000000000000000000000000000000000000000000000000080F9C7
:394779000000000000000000000000000000000000000000000000000000000000000000000000000000000000000000000000000000000000000080F98E
:3947B2000000000000000000000000000000000000000000000000000000000000000000000000000000000000000000000000000000000000000080F955
:3947EB000000200000000000000000000000000000000000000000000000000000000000000000000000000000000000000000000000000000000080D91C
:394824000000000000000000000000000000000000000000000000000000000000000000000000000000000000000000000000000000000000000080F9E2
:39485D000000000000000000000000000000000000000000000000000000000000000000000000000000000000000000000000000000000000000080F9A9
:394896000000000000000008000020000080000000024100000000000000000000000000000000000000000000000000000000000000000000000080C4BA
:3948CF008000000000000002000008000020000080001400000000000000000000000000000000000000000000000000000000000000000000000080BE34
:3949080000370000000000700300400000000000000C0A00000000000000000000000000000000000000000000000000000000000000000000000000A4D2
:394941000000000000000000000000000000000000000000000000000000000000000000000000000000000000000000000000000000000000000080F9C4
:39497A008040000000000008040020000000000000020000000000000000000000000000000000000000000000000000000000000000000000000000997D
:3949B3000000000000000000000010000000000080000000000000000000000000000000000000000000000000000000000000000000000000000000E853
:3949EC000000000000000000800000000000000000000020000000000000000000000000000000000000000000000000000000000000000000000000D31F
:394A25000000000000000000000000000000000000000000000000000000000000000000000000000000000000000000000000000000000000000080F9DF
:394A5E000000000000000000000000000000000000000000000000000000000000000000000000000000000000000000000000000000000000000080F9A6
:394A97000000000000000000000000000000000000000000000000000000000000000000000000000000000000000000000000000000000000000080F96D
:394AD0000000000000000000000001000000000000000000000000000000000000000000000000000000000000000000000000000000000000000080E943
:394B09000000080000000000000000000000000000000040000000000000000000000000000000000000000000000000000000000000000000000080B5F6
:394B42000000000800000000000000100000000000000000000000000000000000000000000000000000000000000000000000000000000000000000E939
:394B7B000000000000000000000000000000000000000000000000000000000000000000000000000000000000000000000000000000000000000080F988
:394BB4000000000000000000000000000000000000000000000000000000000000000000000000000000000000000000000000000000000000000080F94F
:394BED0000000000000000000040000000002000000004000000000000000000000000000000000000000000000000000000000000000000000000809912
:394C26000000000000000000000000000000200000000000000000000000000000000000000000000000000000000000000000000000000000000080D9DC
:394C5F000000000000000000000000000000000000000000000000000000000000000000000000000000000000000000000000000000000000000080F9A3
:394C98000000000000000000000000000000000000000000000000000000000000000000000000000000000000000000000000000000000000000080F96A
:394CD1000000000000000000000000000000000000000000000000000000000000000000000000000000000000000000000000000000000000000080F931
:394D0A000000000000000000000000000000000000000000000000000000000000000000000000000000000000000000000000000000000000000080F9F7
:394D43000012400248000920012480049000124002480009000000000000000000000000000000004800092001248004900012400248000920012480F987
:394D7C00000C8001300006C00018000360000C800130000600000000000000000000000000000000300006C00018000360000C8001300006C0001880F9B8
:024DB500FFFFFE
:00000001FF
